:020000040800F2
:10000000F00700203D0200086B1E0008731C00086A
:10001000691E0008A1090008552200080000000020
:100020000000000000000000000000003120000877
:10003000C5090008000000001D1F0008332000084B
:10004000570200085702000857020008570200082C
:10005000570200085702000857020008570200081C
:10006000570200085702000857020008570200080C
:1000700057020008570200085702000857020008FC
:1000800057020008570200085702000857020008EC
:1000900057020008570200085702000857020008DC
:1000A00057020008570200085702000857020008CC
:1000B00057020008570200085702000857020008BC
:1000C00057020008570200085702000857020008AC
:1000D000570200085702000857020008570200089C
:1000E000570200085702000857020008570200088C
:1000F000570200085702000857020008570200087C
:10010000570200085702000857020008570200086B
:10011000570200085702000857020008570200085B
:10012000570200085702000857020008570200084B
:10013000570200085702000857020008570200083B
:10014000570200085702000857020008570200082B
:10015000570200085702000857020008570200081B
:10016000570200085702000857020008570200080B
:10017000570200085702000857020008000000005C
:10018000570200085702000800F002F800F047F894
:100190000AA090E8000C82448344AAF10107DA45E2
:1001A00001D100F03CF8AFF2090EBAE80F0013F0ED
:1001B000010F18BFFB1A43F0010318478C290000F8
:1001C000AC290000103A24BF78C878C1FAD8520789
:1001D00024BF30C830C144BF04680C6070470000C1
:1001E0000023002400250026103A28BF78C1FBD840
:1001F000520728BF30C148BF0B607047642900F028
:100200001F81782900F05881732900F0F6820020C0
:1002100070471FB502F06AFC1FBD10B510BD00F09D
:10022000F0FA1146FFF7F5FF02F0B2F800F00EFB0E
:1002300003B4FFF7F2FF03BC00F016FB0948804748
:1002400009480047FEE7FEE7FEE7FEE7FEE7FEE7B8
:10025000FEE7FEE7FEE7FEE704480549054A064BD0
:1002600070470000C120000889010008F00100204B
:10027000F0070020F0030020F003002053EA020CF6
:1002800000F069802DE9F04B4FF00006002B1FBFF6
:10029000B3FA83F503FA05F424FA05F65E4012BFBB
:1002A0001643B2FA82F502FA05F4C5F120051EBF25
:1002B00022FA05FC44EA0C04203556EA044C4FEAC5
:1002C000144418BF641C4FF000084FF0000990421E
:1002D00071EB030C39D3002919BFB1FA81F701FA88
:1002E00007F6B0FA80F700FA07F6C7F120071EBF3D
:1002F00020FA07FC46EA0C062037B6FBF4FCA7EB15
:100300000507103F07F01F0BCBF120060CFA0BFB83
:100310002CFA06F644BFB3460026202FA4BF5E4643
:100320004FF0000B5BEA060C08BF4FF0010B19EB16
:100330000B09ABFB027C48EB0608C01B06FB02CC9A
:100340000BFB03CC71EB0C01C1E70B4602464146A7
:100350004846BDE8F08B13B54FF000004FF00001A8
:10036000AFF30080BDE81C40704700000FB41CB51F
:100370000C0007AA009001D02044401E074B7B448C
:1003800069460190069800F006FA002C03D06946F1
:10039000002000F013FA1CBC5DF814FB45040000BB
:1003A00070B5044685690068C10601D5302600E0B5
:1003B0002026C00707D070BDD4E901213046904700
:1003C000206A401C20626D1EF6D570BD70B50446D3
:1003D00085690078C00707D170BDD4E901212020CC
:1003E0009047206A401C20626D1EF6D570BD70B526
:1003F0000C460546012A05D02878800600D5EA6912
:10040000002302E0012305E05B1C934202D2E05C82
:100410000028F9D1A869E618C01AA861286A18440A
:1004200028622846FFF7BCFF04E0D5E9012114F853
:10043000010B9047B442F8D32846FFF7C7FF70BDC1
:100440002DE9F0410646002410687529314616A5AD
:1004500010D0AFF30080002802DA404213A507E075
:1004600031688A0701D512A502E0490704D511A514
:10047000012401E0AFF3008000210A2206F12407E5
:1004800009E0B0FBF2FCB0FBF2F302FB1C003030E1
:1004900078541846491C0028F3D123462A46304692
:1004A000BDE8F04100F019B9000000002D00000087
:1004B0002B0000002000000070B504460D462146C8
:1004C0001068AFF300802188090502D50F4A7A44ED
:1004D00002E00E4A7A440E32002104F1240305E0C2
:1004E00000F00F060009965D5E54491C0028F7D104
:1004F00020780023000704D5702D02D009B1022313
:1005000011322046BDE8704000F0E7B83C260000FC
:100510002DE9F05F894604464FF0000ADFF824B168
:10052000FB44C0F820A02046E168884700287DD021
:10053000252806D0D4E901219047206A401C20627A
:10054000F1E700255F462046E168884720280646F7
:1005500007DB312E05D2B81910F8200C08B105437D
:10056000F1E7A80701D525F00405C4F81CA0002771
:10057000C4F818A02A2E09D0304601F07CFE38B30A
:1005800004EB8708303EC8F8186019E059F8041BDE
:10059000204604EB87029161E1688847012F0646F7
:1005A00018D1E069002820DA25F020051DE0D8F8F0
:1005B000180000EB800006EB40003038C8F8180047
:1005C0002046E1688847064601F055FE0028EED136
:1005D000012F0AD02E2E08D12046E16888477F1CC3
:1005E0000646022F45F02005C4DBA069002803DA87
:1005F000404245F00105A061E80701D025F0100553
:10060000A6B1A6F14100192802D8203645F40065AC
:100610004A463146204625604D46FFF7EFFD60B162
:10062000012807D0ED1D25F0070000E007E000F1EC
:10063000080978E705F1040975E730467AE7206A8A
:10064000BDE8F09F1226000010B5431C02E010F830
:10065000011B71B18107FAD14FF0013202C88C1A27
:100660008C4314EAC211F9D0C01A0A0603D0C01E86
:1006700010BDC01A10BD0A0401D0801E10BD0902B1
:10068000FCD0401E10BD4FF0000200B5134694464A
:100690009646203922BFA0E80C50A0E80C50B1F1DA
:1006A0002001BFF4F7AF090728BFA0E80C5048BFEE
:1006B0000CC05DF804EB890028BF40F8042B08BF8C
:1006C000704748BF20F8022B11F0804F18BF00F888
:1006D000012B70477047704770472DE9F0470D4672
:1006E00099469246044600F124080168880604D51C
:1006F000E06921F01001216000E00120A84201DD45
:10070000471B00E00027A1697A1902EB0900081ACB
:10071000A0612078C00602D42046FFF741FE0026E3
:1007200008E0D4E901211AF806009047206A401C2D
:10073000761C20624E45F4DB2078C0060AD52046A0
:10074000FFF72EFE06E0D4E9012130209047206A11
:10075000401C2062381EA7F10107F4DC07E0D4E951
:10076000012118F805009047206A401C2062281ECD
:10077000A5F10105F3DC2046FFF728FE20780006EE
:1007800002D50220BDE8F0870120FBE701694A1C81
:1007900002610878704700B58FB0CDE901310021C2
:1007A000059105497944CDE9031011466846FFF7E4
:1007B000AFFE0FB000BD0000E5FFFFFF0A6802F8C2
:1007C000010B0A607047D1E900239A4202D2531C00
:1007D0000B601070704710B5436913B1AFF3008020
:1007E00001E0FFF704FE012010BD127800F12401A2
:1007F0000A7000224A700122EDE711684FF0FF32C3
:10080000E9E7754600F02CF8AE4605006946534608
:1008100020F00700854618B020B5FFF71DFDBDE8A4
:1008200020404FF000064FF000074FF000084FF057
:10083000000B21F00701AC46ACE8C009ACE8C009E8
:10084000ACE8C009ACE8C0098D46704710B5044655
:10085000AFF300802046BDE81040FFF7E9BC000080
:10086000004870479001002001491820ABBEFEE708
:100870002600020070470000464910B54A6822F47D
:1008800040324A604A6843681A434A6001684A68CD
:1008900022F480724A6001684A68036942EA0322CE
:1008A0004A6001684A6822F040724A6001684A68FA
:1008B00083681A434A6001688A6822F400628A6089
:1008C00001688A68C3681A438A60816A6FF070623F
:1008D000D14201688A6822F070628A6001688A6881
:1008E0000CD0836A1A438A6001688A6822F04052F9
:1008F0008A6001688A68C36A1A4301E022F04052A4
:100900008A6001688A6822F002028A6001688A6847
:10091000037E42EA43028A6090F8201000290168B1
:100920004A680FD042F400624A6001684A6822F4C3
:1009300060424A6001684A68174C436A04EB4333DB
:100940001A4301E022F400624A600168CA6A22F494
:100950007002CA620168CA6A838B104C04EB0353AD
:100960001A43CA6201688A6822F400728A600168C8
:100970008A6890F8303042EA43228A6001688A68C7
:1009800022F480628A6001688A68406942EA8020B5
:10099000886010BD0023014000E0FFFF0000F0FF71
:1009A000FEE700000548016841F0807101600448DD
:1009B000016841F00101016070470000FCED00E0BA
:1009C000001000E07047000078B50024009490F813
:1009D0003C20012A19D0012280F83C200A68072314
:1009E0000568092A13D9EE680A3A02EB42029340DD
:1009F0009E43EE600B788A680A3B03EB43039A4000
:100A00000368DD682A43DA6010E0022078BD2E69B1
:100A100002EB420293409E432E610B788A6803EBFF
:100A200043039A4003681D692A431A614A681F23D9
:100A3000072A13D205686E6B521E02EB82029340A6
:100A40009E436E630B790A885B1E92B203EB8303AD
:100A50009A4003685D6B2A435A6327E005680D2AB4
:100A600012D22E6BD21F02EB820293409E432E6362
:100A70000B790A88DB1F92B203EB83039A40036869
:100A80001D6B2A431A6311E0EE6A0D3A02EB8202F3
:100A900093409E43EE620B790A880D3B92B203EBC2
:100AA00083039A400368DD6A2A43DA62164B0568BD
:100AB000144A9D4206D10D68122D03D1556845F4A4
:100AC0008005556005689D4218D10B68102B01D038
:100AD000112B13D1536843F40003536009681029A4
:100AE0000CD10A490A4A0968B1FBF2F101EB810114
:100AF000490000E0491E00910029FBD180F83C40EC
:100B0000002078BD00230140002001401800002093
:100B100040420F000068C06C704770B504004FF091
:100B2000000503D0206C002610B107E0012070BD45
:100B3000204600F01DF8666484F83C60206CC00616
:100B400010D4206C20F4885040F00200206420462D
:100B5000FFF792FE6664206C20F0020040F0010076
:100B6000206400E0012584F83C60284670BD000048
:100B700070B586B0044614216846FFF784FD274A05
:100B8000254E256800232549143A03242448B542FC
:100B900011D10D6845F480750D60096801F480710C
:100BA0000591116841F001011160116801F0010126
:100BB0000591012113E01B4EB54218D10D6845F493
:100BC00000750D60096801F400710591116841F02C
:100BD00001011160116801F0010105910221CDE9C7
:100BE00000140293694600F007F906B070BD0E4E7E
:100BF000B542FAD10D6845F480650D60096801F4CD
:100C000080610591116841F001011160116801F0E6
:100C1000010105910421E2E700200140443802402F
:100C20000000024000210140002201402DE9F04176
:100C3000044600680D4681684FF0000749050BD552
:100C40008068C00508D5206C40F02000206484F83E
:100C50003C700120BDE8F08100F0CCF9064613E0BD
:100C6000681C11D025B100F0C5F9801BA8420BD932
:100C700020680068800707D4206C40F004002064DE
:100C800084F83C700320E5E7206800688007E7D51A
:100C900021686FF012000860206C40F4007020643E
:100CA0002068816811F0405F13D1217E89B9C16A43
:100CB00011F4700F02D0806840050AD4206C20F433
:100CC00080702064206CC00403D4206C40F00100CC
:100CD00020640020BEE7000018B50021009190F8C4
:100CE0003C20012A07D0012280F83C20026893684A
:100CF000DB0702D011E0022018BD936843F0010326
:100D000093602E4A2E4B1268B2FBF3F202EB4202C2
:100D100000E0521E0092002AFBD102689368DB07B4
:100D200042D0036C40F20164A34343F48073036434
:100D300053685B0505D5036C23F4005343F48053DB
:100D40000364036CDB0404D5436C23F006034364A3
:100D500000E0416480F83C101A496FF022031360F0
:100D600049680068CA06184906D0884224D18168BB
:100D700011F0405F13D01FE08842F8D0134A904230
:100D800003D1D1F80423D206F1D0114A904213D1F5
:100D9000D1F8041301F01F011029E8D30CE0816899
:100DA00041F08041816007E0016C41F01001016475
:100DB000416C41F001014164002018BD1800002081
:100DC00040420F000023014000200140002101406B
:100DD0000022014070B5044600F00CF90546601C85
:100DE00002D004480078044400F004F9401BA042FB
:100DF000FAD370BD0C0000202DE9F84FDFF8BCA13C
:100E00000022012503264FF00F090AF1040BAAF175
:100E1000040E00BF0B6805FA02F42340A34270D110
:100E20000F7907F00307012F01D0022F16D1876831
:100E30004FEA420806FA08FC27EA0C07D1F80CC072
:100E40000CFA08FC4CEA070CC0F808C04768A74336
:100E50000C79C4F3001494403C4344600C79E4439F
:100E6000A4070AD0C4684FEA420C06FA0CF7BC4348
:100E70008F6807FA0CF72743C7600C7904F0030466
:100E8000022C12D1D40800EB840CDCF82040570768
:100E9000FF0E09FA07F824EA0804D1F8108008FACE
:100EA00007F848EA0408CCF8208004684FEA420CAE
:100EB00006FA0CF7BC430F7907F0030707FA0CF7A3
:100EC000274307604C6814F4403F70D03C4C2768BF
:100ED00047F480472760246822F0030704F4804425
:100EE0000094384C07EB040CDCF8084897074FEAED
:100EF000177809FA08F7BC43334FB84202D10027EC
:100F000024E054E0314FB84201D101271EE0304FB8
:100F1000B84201D1022719E02E4FB84201D1032770
:100F200014E02D4FB84201D104270FE02B4FB842F7
:100F300001D105270AE02A4FB84201D1062705E072
:100F4000284FB84201D1072700E0082707FA08F721
:100F50002743CCF80878DAF800405746D1F804C0A7
:100F60009C435FEACC2C00D51C433C60DBF800407E
:100F70005F46D1F804C09C435FEA8C2C00D51C432B
:100F80003C60DEF800407746D1F804C09C435FEA3D
:100F90008C3C00D51C433C60084F083F3C68D1F8AE
:100FA00004C09C435FEACC3C00D51C433C60521C0F
:100FB000102AFFF42FAFBDE8F88F0000083C014075
:100FC000443802400030014000000240000402406A
:100FD00000080240000C02400010024000140240D1
:100FE00000180240001C02400AB1816170470904E8
:100FF000FBE7000001488068704700000C000020FB
:101000000248816802781144816070470C0000201A
:101010000B4810B5016841F400710160016841F4AA
:1010200080610160016841F480710160032000F07B
:1010300061F80F2000F006F800F024F8002010BD41
:10104000003C024070B50D4D04464FF47A7128788B
:10105000B1FBF0F00A490968B1FBF0F000F034FD93
:1010600048B9102C07D200222146501E00F022F869
:1010700000206C6070BD012070BD00000C000020DD
:10108000180000200A4808B5016841F48041016059
:10109000006800F4804000900548001F016841F09E
:1010A00080510160006800F08050009008BD000091
:1010B00044380240F0B40E4B1B680C46C3F30223C5
:1010C000C3F10705042D00D90425191D072901D2F4
:1010D000002300E0DB1E012606FA05F1491E21402F
:1010E00099409E40761E16403143F0BC01F0B3B8E3
:1010F0000CED00E0064900F0070208684FF6FF0318
:10110000184040EA0220034A10430860704700007C
:101110000CED00E00000FA052DE9F0470E46050051
:1011200065D0DFF81481D8F80000F7B200F00700AE
:10113000B04207D288F80070D8F8000000F007002D
:10114000B04254D128683D4C810712D5400703D5E1
:10115000206840F4E05020602878000703D520681C
:1011600040F4604020602068A96820F0F000084347
:1011700020602878C0072DD03049686808390128D8
:1011800012D0022813D0032811D00968890700293A
:101190002DDA216821F0030101432160FFF72AFFC6
:1011A000814641F2883A0EE009688903EFE7096851
:1011B0008901ECE7FFF71EFFA0EB0901514502D9B9
:1011C0000320BDE8F0872068696800F00C00B0EBF0
:1011D000810FEFD1D8F80010404601F00701B1426D
:1011E00007D90770006800F00700B04201D0012065
:1011F000E7E72878400705D52068E96820F4E05043
:10120000084320602878000706D52068296920F463
:10121000604040EAC100206000F038F82168084AC8
:10122000C1F30311515CC8400649086006480068D4
:10123000FFF708FF0020C4E7003C024008380240E6
:10124000F62A000818000020100000200448054974
:1012500000680968044AC1F38221515CC8407047A4
:101260001800002008380240062B000804480549F1
:1012700000680968044AC1F34231515CC8407047B4
:101280001800002008380240062B0008154810B549
:10129000006810F00C02144813D01449042A0FD02F
:1012A000082A0ED10F4C241F2268236802F03F0247
:1012B0005B0207D52068C0F38810A0FB010106E09F
:1012C000084610BD2168C1F38811A1FB000100236D
:1012D000FEF7D4FF2168C1F30141491C4900B0FB6E
:1012E000F1F010BD083802400024F40040787D0180
:1012F0002DE9F84F04006ED02078DFF84C93C0073A
:10130000A9F104054AD009F104000168C1F3810183
:10131000012908D00068C0F3810002280AD1D9F859
:101320000000400206D52868800337D56068002891
:10133000E1D033E06068B0F5803F10D0B0F5A02F69
:10134000286810D020F480302860286820F480209D
:1013500028606068A8B1FFF74DFE06460DE02868DA
:1013600040F48030F4E740F480202860F7E700BFC5
:10137000FFF740FE801B642873D828688003F7D5E8
:101380000CE0FFF737FE064605E000BFFFF732FE30
:10139000801B6428F0D828688003F7D42078DFF811
:1013A000AC8280074FF0000A3ED5A748001D0168B7
:1013B00011F00C0F08D00068C0F3810002280BD197
:1013C000D9F80000400207D42868800716D5E068E5
:1013D000012800D112E033E1E068B8B10120C8F87B
:1013E0000000FFF707FE064605E000BFFFF702FE1C
:1013F000801B0228C0D828688007F7D52868216993
:1014000020F0F80040EAC10028600DE0C8F800A014
:10141000FFF7F0FD064604E0FFF7ECFD801B022815
:101420001FD828688007F7D42078000722D5864F78
:1014300087486169703771B101210160FFF7DAFDFA
:10144000064604E0FFF7D6FD801B022809D838685D
:101450008007F7D50EE0C0F800A0FFF7CBFD0646E9
:1014600005E082E0FFF7C6FD801B02287DD83868C2
:101470008007F7D42078400768D5DFF8CCB1002783
:101480000BF13C0BDBF80000C0000BD4DBF80010C4
:1014900041F08051CBF80010DBF80000012700F08C
:1014A000805000906B4E3068C00510D4306840F416
:1014B00080703060FFF79EFD009005E0FFF79AFD19
:1014C0000099401A022850D83068C005F6D55E4E03
:1014D000A0686C3601280FD00528306810D020F0A5
:1014E00001003060306820F004003060A068B8B1BE
:1014F000FFF780FD00900FE0306840F00100F4E756
:1015000040F004003060F7E7FFF774FD0099411ADE
:1015100041F28830814266D830688007F4D50EE009
:10152000FFF768FD009007E0FFF764FD0099411A9E
:1015300041F28830814256D830688007F4D42FB108
:10154000DBF8001021F08051CBF80010A069C8B37F
:101550003D49091D0968C1F3810102294AD00228C9
:10156000504607D0C8F8600000E03CE0FFF742FDBD
:1015700004463BE04746C8F86000FFF73BFD0646DF
:1015800005E000BFFFF736FD801B02282BD8286836
:101590008001F7D4D4E907010843A16A2E4A49081B
:1015A00002EB0141626A41EA8211084394F82C106F
:1015B00040EA0161C9F8001001203866FFF71AFD02
:1015C000044606E03EE000BFFFF714FD001B0228C2
:1015D00009D828688001F7D534E000BFFFF70AFD7D
:1015E000001B022802D90320BDE8F88F286880017B
:1015F000F4D427E00128F7D0D9F80000E26900F41C
:10160000800191421CD1226A00F03F01914217D122
:1016100047F6C071626A0140B1EB821F10D1A26A25
:101620004FF0FF3300F4403103EB5202B1EB024FB5
:1016300006D194F82C1000F07060B0EB016F01D06F
:101640000120D1E70020CFE70438024000004742E4
:10165000800E4742007000400000FFFF70B504009C
:1016600009D0606A002540B125616561A56294F8E2
:10167000510040B10CE0012070BD6068B0F5827F80
:10168000F4D0E561F2E784F85050204600F044F8C9
:10169000022084F851002068016821F040010160B7
:1016A000A088218900F4827001F404410843A189D3
:1016B00001F400610843217C01F002010843217D0F
:1016C00001F001010843218B01F400710843217FDF
:1016D00001F03801084394F8201001F0800108431C
:1016E000218D01F40051084321680860A06904219C
:1016F00001EA104094F8241001F010010843216819
:1017000048602068C16921F40061C16165650120FC
:1017100084F85100002070BD10B586B00446142135
:101720006846FEF7B0FF13492068884220D112486E
:101730000021026842F480520260006800F4805088
:1017400005900D481438026842F0020202600068F9
:1017500000F002000590382000900220CDE9010140
:10176000032003900520049069460448FFF744FBDA
:1017700006B010BD00300140443802400004024071
:101780002DE9F84F044690F8500000271D461646F4
:10179000894601280DD04FF0010B84F850B0FFF7B7
:1017A00029FC804694F85100BA46012804D002274B
:1017B00093E00220BDE8F88FB9F1000F73D0002E3E
:1017C00071D0032084F85100C4F854A0C4F83090BC
:1017D000A686E686C4F838A0A4F83CA0A4F83EA0EB
:1017E000C4F844A0C4F840A0A068B0F5004F09D1E7
:1017F0002068016821F0400101602068016841F41F
:101800008041016020680168490603D4016841F005
:1018100040010160E068B0F5006F606803D030B34C
:10182000012E24D041E008B1012E1CD1206B21688B
:101830000088C86006E020688168890709D5216BA7
:101840000988C160206B801C2063E08E401EE0860A
:1018500009E0FFF7CFFBA0EB0800A84202D3681C09
:1018600001D031E07DB3E08E0028E4D120E0206B90
:1018700021680078087306E020688168890709D527
:10188000216B09780173206B401C2063E08E401EA1
:10189000E0860AE0FFF7AEFBA0EB0800A84203D306
:1018A000681C02D010E017E06DB1E08E0028E3D193
:1018B00042462946204600F033FB08B120206065EF
:1018C000A06818B106E0FFE7032706E02068C168BA
:1018D00080680090606D00B1012784F851B084F8F1
:1018E00050A0384666E72DE9F84F044690F85000BE
:1018F00000270A9E1D4692468B464FF0010901289B
:101900000ED0012084F85000FFF774FB804694F855
:101910005100616801280CD0B1F5827F07D102E047
:101920000220BDE8F88FA16809B9042801D0022778
:10193000C2E0BBF1000F27D0BAF1000F24D01DB3D5
:1019400094F85100042802D0052084F851000020AA
:101950006065C4F838A0E587A587C4F830B0E5868F
:10196000A5862064606420680168490603D4016884
:1019700041F040010160E068B0F5006F606805D09B
:10198000E8B3012D46D07FE0012795E008B1012D95
:1019900039D1206B21680088C860206B801C2063CF
:1019A000E08E401EE0862EE02068816889070FD512
:1019B000E18E69B1B9F1010F0AD1216B0988C160CB
:1019C000206B801C2063E08E401EE0864FF00009F3
:1019D00020688168C9070CD0E18F51B1C068A16B44
:1019E0000880A06B801CA063E08F401EE0874FF052
:1019F0000109FFF7FFFAA0EB0800B04200E009E0A0
:101A000001D3701C50D1E08E0028CDD1E08F00288A
:101A1000CAD13FE0206B216800780873206B401C1E
:101A20002063E08E401EE0862EE0206881688907F2
:101A30000FD5E18E69B1B9F1010F0AD1216B097897
:101A40000173206B401C2063E08E401EE0864FF047
:101A5000000920688168C9070CD0E18F51B1C068C6
:101A6000A16B0870A06B401CA063E08F401EE08754
:101A70004FF00109FFF7BEFAA0EB0800B04202D315
:101A8000701C01D010E07EB1E08E0028CDD1E08F37
:101A90000028CAD142463146204600F041FA28B11A
:101AA00001272020606507E0032705E0A06818B93A
:101AB0002068C16880680090012084F851000020EF
:101AC00084F8500038462CE710B5401EB0F1807FF6
:101AD00001D3012010BD4FF0E02460610F21601799
:101AE00000F0B9FB0020A06107202061002010BD9C
:101AF00070B5040004D094F83D00002510B106E054
:101B0000012070BD84F83C50204600F023F82420CA
:101B100084F83D002068C16821F40051C16020466E
:101B200000F0D6FA2068016921F490410161206833
:101B3000416921F02A0141612068C16841F40051E6
:101B4000C1602564202084F83D0084F83E00002018
:101B500070BD000010B586B0044614216846FEF73B
:101B600092FD14492068884221D11348002102685F
:101B700042F010020260006800F0100005900E486C
:101B80001438026842F001020260006800F00100AF
:101B900005904FF4C06000900220CDE901010320C0
:101BA00003900720049069460448FFF725F906B022
:101BB00010BD000000100140443802400000024007
:101BC0002DE9F843044690F83D001F4616460D46A1
:101BD00020284CD1C5B1BEB194F83C00012846D0B4
:101BE000012084F83C004FF00008C4F84080212018
:101BF00084F83D00FFF7FEF9A6848146E684A068DC
:101C0000B0F5805F03D004E00120BDE8F8832069CF
:101C100028B12E465FF0000584F83C800EE00026D7
:101C2000FAE78021204600F0D9FAA0B9AEB116F843
:101C3000010B21684860E08C401EE084E08C4B463C
:101C40004FF0000200970028EBD14FF040012046F2
:101C500000F0C4FA30B10320D7E735F8020BC0F327
:101C60000800E6E7202084F83D000020CDE70220B0
:101C7000CBE7FEE77FB5002412480094019402945C
:101C80000F49039401604FF48031C0E9011401252C
:101C90000461057680F820400B49C0E90A14C5614B
:101CA000C46080F830404561FEF737FF072000949C
:101CB000CDE9015069460348FEF786FE7FBD00006E
:101CC000002001401C0000200100000F1FB5002172
:101CD00012480091019102910F4A039102604FF462
:101CE0008032C0E9012101240161047680F82010CE
:101CF0000B4AC0E90A21C461C16080F83010446118
:101D0000FEF70BFF07200094CDE901406946034828
:101D1000FEF75AFE1FBD00000021014064000020B4
:101D20000100000F1FB5002112480091019102919E
:101D30000F4A039102604FF48032C0E9012101246F
:101D40000161047680F820100B4AC0E90A21C461C1
:101D5000C16080F830104461FEF7DFFE0220CDE95B
:101D600000040720029069460248FEF72DFE1FBDC1
:101D700000220140AC0000200100000FF0B587B048
:101D800014216846FEF77FFC26480024016841F0D4
:101D900080010160016801F080010591016841F056
:101DA00001010160016801F001010591016841F044
:101DB00008010160016801F008010591016841F026
:101DC000020101600068184E00F002004FF4004567
:101DD0000590002229463046FFF706F9134F0022EE
:101DE000C0213846FFF700F900950125CDE90154DF
:101DF000694630460394FEF7FFFFC0200090CDE90E
:101E00000154694638460394FEF7F6FF2802009015
:101E10004FF48810CDE9010469463846FEF7ECFF1F
:101E200007B0F0BD30380240000C02400004024010
:101E30000C480B494FF4007201604FF4827141600D
:101E400000218160C1600161C0E905120822C0E97A
:101E50000721416281620A21C162FFF7FFBB0000D6
:101E600000300140F4000020FEE7FEE770B52A4C88
:101E700000252020E5702070257105206070601D10
:101E80000570284600F0FEF9012000F003FA052055
:101E9000FEF7A0FF0C21002000F0DCFD0F21052043
:101EA00000F039FD032000F021FD022000F0F8FCD5
:101EB00008B10120E070062000F0CCFC06460020AE
:101EC00000F0EEFC00F056FD00211D2000F0C2FDE8
:101ED00000211C2000F0BEFD25717021072000F0BC
:101EE000B9FD4C2000F0D8FCE22000F01BFDE12001
:101EF00000F018FD00F09CFC002000F0ABFC20F08E
:101F00000101002000F0A6FD1EB1FF2E01D001202E
:101F100070BD002070BD0000000000207047000070
:101F200038B504461248134B0068B0FBF3F04FF489
:101F30007A73584300906068B0F5827F0DD10B46EC
:101F4000009200228021204600F016F870B1606DEA
:101F500040F020006065032038BD009830B1401E7D
:101F6000009020688068C0430006F6D5002038BD88
:101F70001800002000366E012DE9F8431E469146F8
:101F800088460446089DFFF735F8401B351AFFF7D1
:101F900031F8074625480068C0F3CB30684338E085
:101FA000701C37D0FFF726F8C01BA84203D215B12A
:101FB000009860B32CE02068416821F0E0014160A6
:101FC0006068B0F5827F0BD1A068B0F5004F02D0F9
:101FD000B0F5806F04D12068016821F040010160F4
:101FE000A06AB0F5005F09D12068016821F40051B2
:101FF00001602068016841F400510160012084F80B
:102000005100002084F850000320BDE8F88300252B
:10201000401E00902068816838EA010004D0002149
:102020004945BDD10020F0E70121F9E71800002063
:102030007047FEF7E5BF000030B593B03021684629
:10204000FEF721FB14210CA8FEF71DFB1A48002502
:10205000016841F080510160006800F080501190EB
:102060001648016841F4804101600068022400F4D0
:102070008040119001200090000401908001CDE982
:102080000640192008904FF4A870CDE909040420F7
:102090000B906846FFF72CF90CA90F2081E831005E
:1020A0004FF4A0500F904FF4E050109005210CA871
:1020B000FFF732F813B030BD4038024000700040E6
:1020C0000248016841F470010160704788ED00E04A
:1020D00070B5044600680169E26821F4405111437B
:1020E00001612169A068E2690843616911430843FD
:1020F0002168CA6849F20C639A430243CA602068A7
:102100004169A26921F4407111434161314920685C
:10211000884202D03049884202D1FFF7A7F801E097
:10212000FFF794F8E2690023192164253226B2F5FD
:10213000004F626828D0A0FB0101930F9200FEF7C8
:102140009DF80146B0FBF5F06FF01802504301EB2B
:10215000800006EB0010B0FBF5F000F0F002B1FBE0
:10216000F5F002EB0012B1FBF5F06FF018035843E5
:1021700001EB800006EB0010B0FBF5F000F00F0063
:1021800021681044886070BDA0FB010192185B417A
:10219000FEF774F80146B0FBF5F00201B1FBF5F073
:1021A0006FF01803584301EB800006EBC000B0FB52
:1021B000F5F000F0F80002EB4002B1FBF5F05843F7
:1021C00001EB800006EBC000B0FBF5F000F007006B
:1021D000D6E7000000100140001401402DE9F04155
:1021E000984617460E460446069D27E0681C25D0F3
:1021F0002DB1FEF7FFFEA0EB0800A8421ED9206813
:102200000C3050E8001F21F4D07140E80012002A81
:10221000F5D12068143050E8001F21F0010140E89A
:102220000012002AF5D1202084F83D0084F83E00F9
:10223000002084F83C000320BDE8F081206800689D
:1022400036EA000004D00020B842CFD00020F3E7E7
:102250000120F9E7FEE70907090E002804DB00F179
:10226000E02080F80014704700F00F0000F1E0203B
:1022700080F8141D704730380A2801D201207047B9
:1022800000207047024640210148FEF7ADBE000025
:102290000004024010B5024680210448FEF7A4FE67
:1022A000BDE81040052000F003B800000004024023
:1022B0000649074A0968B1FBF2F14143054800228B
:1022C000426042688A42FCD3704700001800002038
:1022D00040420F00001000E010B51D2000F0BAFAD7
:1022E00040F006011D2000F0B5FB1C2000F0B2FA02
:1022F00040F003011C2000F0ADFB024901200871F1
:1023000010BD00000000002070B50024204600F041
:10231000A1FA00F00C05012000F09CFA05F008017C
:10232000014304D0680701D5022400E001242046BF
:1023300070BD052000F08EBA10B5062000F08AFAB4
:1023400000F02800202803D0082803D0002010BD6A
:10235000022010BD012010BD10B5062000F07AFA51
:10236000C0F3410010BD0000014800787047000034
:1023700000000020FF2000F0D5BA10B5032000F0C7
:1023800069FA401E022801D8012010BD002010BDAE
:102390002DED028B9AB0FEF73BFEFFF74DFEFFF7E7
:1023A000EDFCFFF767FCFFF791FCFFF7BBFCFFF7C5
:1023B0003FFDB048AE490C2201604FF4E13141606D
:1023C00000218160C160C0E904128161C161FFF731
:1023D0008FFBFEF7E7FAFFF7D0FF402101A8FEF7D9
:1023E00052F9A5A3A5A2402101A8FDF7BFFF01A8AE
:1023F000FEF72AF982B24FF47A752B4601A99D485F
:10240000FFF7DEFBFFF732FD401EFE2801D29AA344
:1024100000E09EA39FA2402101A8FDF7A7FF01A80D
:10242000FEF712F982B22B4601A99248FFF7C8FBCA
:10243000FFF752FF132000F02FFA9948E82100F02F
:10244000E3F9FFF797FF034696A2402101A8FDF7A5
:102450008DFF01A8FEF7F8F882B22B4601A9854846
:10246000FFF7AEFBFFF778FF0446034692A2402138
:1024700001A8FDF77BFF01A8FEF7E6F882B22B4624
:1024800001A97C48FFF79CFB34B1012C08D0022C39
:102490000AD0032C0CD011E02B460C228CA10AE0B0
:1024A0002B460C228EA106E02B460D2290A102E0C5
:1024B0002B460C2292A16F48FFF782FBFFF739FFF2
:1024C0000346009092A2402101A8FDF74FFF01A80A
:1024D000FEF7BAF882B22B4601A96648FFF770FBF7
:1024E000FFF72AFF0446034690A2402101A8FDF70A
:1024F0003DFF01A8FEF7A8F882B22B4601A95D486E
:10250000FFF75EFB022C32D0012C2B464FF00B0262
:1025100031D08CA15748FFF753FBFFF725FF034647
:102520008BA2402101A8FDF721FF01A8FEF78CF83E
:1025300082B22C462B4601A94E48FFF741FBFFF71C
:10254000E3FE0546034687A2402101A8FDF70EFFE2
:1025500001A8FEF779F882B2234601A94548FFF7A2
:102560002FFB55B1012D0CD0022D0ED013E02B46C0
:102570000D2282A1CEE785A1CCE72346122286A1B7
:1025800006E023460B2289A102E023460C228AA101
:102590003848FFF715FB01221146104600F020F9DC
:1025A0004D2656274FF06108DFED878A9FED878A19
:1025B00040F6FF758648FEF78FFB85484830FEF7EA
:1025C0008BFB83489030FEF787FB21468048FEF75F
:1025D0002DFB7F4821464830FEF728FB7C482146EA
:1025E0009030FEF723FB202111A8FEF74CF88DF860
:1025F00044608DF845708DF846807548FEF78AFA7C
:1026000000EE100AB8EE400AC0EE280AB0EE480A02
:1026100000EE880ABCEEC00A10EE100A8DF84700E2
:102620006B484830FEF776FA64214843B0FBF5F07A
:1026300064308DF8480066489030FEF76BFA6421EC
:102640004843B0FBF5F064308DF8490011A8FDF760
:10265000FBFFC1B211A800F0A9F928B923460A224C
:102660005CA10448FFF7ACFA6420FEF7B3FBA1E7D6
:10267000001001404C0100204F4B0000436F6E6E74
:1026800065637465643A2025730A00004E4F542038
:102690004F4B0000496E69743A2025730A00000010
:1026A000E2F0F0E86765745F7374617475733A20E3
:1026B0003078253032780A0067657450414C657671
:1026C000656C3A20307825303278202000000000F8
:1026D000524632345F50415F4D494E0A00000000BF
:1026E000524632345F50415F4C4F570A00000000A1
:1026F000524632345F50415F484947480A00000063
:10270000524632345F50415F4D41580A000000008C
:102710006765744368616E6E656C3A203078253069
:102720003278203F2025640A000000006765744469
:10273000617461526174653A2030782530327820B6
:1027400020000000524632345F314D4250530A009F
:102750006765745061796C6F616453697A653A207A
:1027600025640A006765744352434C656E6774685C
:102770003A2030782530327820200000524632341A
:102780005F3235304B4250530A000000524632341B
:102790005F324D4250530A00524632345F43524337
:1027A0005F44495341424C45440A0000524632348A
:1027B0005F4352435F380A00524632345F4352430C
:1027C0005F31360A0000000000F07F4500004842FB
:1027D0001C0000204E6F742077726974650A000037
:1027E00070B5064614460D46002000F033F8290166
:1027F00041EA461141EA8411BDE8704020F07000C2
:102800000143002000F026B913B5084C69460A20A0
:10281000627800F045F962786946102000F040F9CE
:102820002178112000F016F91CBD000000000020E6
:1028300010B5002000F00EF8810709D440F0020125
:10284000002000F007F9BDE810400520FEF7C2BAED
:1028500010BD00003EB500F01F008DF808000020FC
:102860008DF80400FFF716FD4FF47A74012301AAD6
:1028700002A908480094FFF736F8012301AAFF21B6
:1028800004480094FFF72FF80120FFF703FD9DF89F
:1028900004003EBDF40000200146052000F0DAB837
:1028A00070B5064600250620FFF7D4FF20F0280467
:1028B0000D485521022E817002D0012E04D007E070
:1028C00044F020049B2102E044F00804412181707F
:1028D0002146062000F0BEF80620FFF7BBFFA0420D
:1028E00000D10125284670BD0000002010B5044627
:1028F0000620FFF7AFFF00F0F801032C01D90720F5
:1029000003E0012000EB4400C0B20143BDE81040E9
:10291000062000F09FB800F00F0060F31F110420A4
:1029200000F098B801B582B000208DF80400FFF7E0
:10293000B1FC4FF47A700090012301AA02A9044867
:10294000FEF7D1FF0120FFF7A5FC9DF804000EBDA6
:10295000F400002010B51C460AB1B02200E0A0220D
:1029600000F040F8002C04D0BDE810400120FFF733
:1029700089BC10BD38B550208DF800000020FFF74D
:1029800089FC4FF47A742346012269460648FEF713
:10299000F7FE2346012273210348FEF7F1FE0120D2
:1029A000FFF778FC38BD0000F400002010B50123CB
:1029B0001A46FFF7CFFF00BFFFF7DCFC10F0300F27
:1029C000FAD00020FFF75EFC7021072000F042F8EB
:1029D000C00604D5E120FFF7A5FF002010BD0120AF
:1029E00010BD0000FEB500278DF80820174A8DF8AD
:1029F000047006461078814200D301460C461179D6
:102A000009B1002000E0001BC5B20020FFF742FC26
:102A100064200090012301AA02A90D48FEF763FF7C
:102A200064232246314604E064238DF800700122BD
:102A300069460748FEF7A4FE6D1EEDB2F4D20120F0
:102A4000FFF728FC9DF80400FEBD000000000020F8
:102A5000F400002003B583B000F01F00002140F017
:102A600020008DF808008DF804100846FFF712FCCE
:102A700064200090012301AA02A90848FEF733FF51
:102A80004FF47A73012204A90448FEF779FE01206D
:102A9000FFF700FC9DF8040005B000BDF400002025
:102AA0003EB50D4600F01F00002140F020008DF8DB
:102AB000080014468DF804100846FFF7EBFB64206D
:102AC0000090012301AA02A90748FEF70CFF642326
:102AD000224629460448FEF753FE0120FFF7DAFBA1
:102AE0009DF804003EBD0000F40000204FF040704F
:102AF000E1EE100A70470000000000000000010233
:102B00000304060708090000000001020304303135
:102B10003233343536373839414243444546403004
:102B200058003031323334353637383961626364B6
:102B300065664030780004000008000000000000D6
:102B40000002000100001000682B000800000020B7
:102B50001C000000C4010008842B00081C00002099
:102B6000D4070000E00100080000000000000000A1
:102B70000000000001000000100000000000000044
:042B80000024F40039
:040000050800018965
:00000001FF
