:020000040800F2
:10000000F00700209D0100087F1C0008511A00081D
:100010007D1C000897070008492100080000000027
:10002000000000000000000000000000691E000841
:10003000B907000800000000311D00086B1E000811
:10004000B7010008B7010008B7010008B7010008B0
:10005000B7010008B7010008B7010008B7010008A0
:10006000B7010008B7010008B7010008B701000890
:10007000B7010008B7010008B7010008B701000880
:10008000B7010008B7010008B7010008B701000870
:10009000B7010008B7010008B7010008B701000860
:1000A000B7010008B7010008B7010008B701000850
:1000B000B7010008B7010008B7010008B701000840
:1000C000B7010008B7010008B7010008B701000830
:1000D000B7010008B7010008B7010008B701000820
:1000E000B7010008B7010008B701000800F002F8E6
:1000F00000F045F80AA090E8000C82448344AAF17D
:100100000107DA4501D100F03AF8AFF2090EBAE87A
:100110000F0013F0010F18BFFB1A43F0010318473B
:10012000F428000014290000103A24BF78C878C1D0
:10013000FAD8520724BF30C830C144BF04680C60ED
:10014000704700000023002400250026103A28BF35
:1001500078C1FBD8520728BF30C148BF0B60704739
:10016000642900F0A580782900F0DE80732900F072
:10017000A282002070471FB51FBD10B510BD00F052
:10018000D0FA1146FFF7F7FF02F0CCF800F0EEFAD4
:1001900003B4FFF7F2FF03BC00F0F6FA094880470A
:1001A00009480047FEE7FEE7FEE7FEE7FEE7FEE759
:1001B000FEE7FEE7FEE7FEE704480549054A064B71
:1001C00070470000C11E0008ED000008F00100208B
:1001D000F0070020F0030020F00300200FB41CB54E
:1001E0000C0007AA009001D02044401E074B7B441E
:1001F00069460190069800F02CFA002C03D069465D
:10020000002000F039FA1CBC5DF814FB91040000DA
:1002100070B5044685690068C10601D5302600E046
:100220002026C00707D070BDD4E901213046904791
:10023000206A401C20626D1EF6D570BD70B5044664
:1002400085690078C00707D170BDD4E9012120205D
:100250009047206A401C20626D1EF6D570BD70B5B7
:100260000C460546012A05D02878800600D5EA69A3
:10027000002302E0012305E05B1C934202D2E05C14
:100280000028F9D1A869E618C01AA861286A18449C
:1002900028622846FFF7BCFF04E0D5E9012114F8E5
:1002A000010B9047B442F8D32846FFF7C7FF70BD53
:1002B0002DE9F0410646002410687529314616A53F
:1002C00010D0AFF30080002802DA404213A507E007
:1002D00031688A0701D512A502E0490704D511A5A6
:1002E000012401E0AFF3008000210A2206F1240777
:1002F00009E0B0FBF2FCB0FBF2F302FB1C00303073
:1003000078541846491C0028F3D123462A46304623
:10031000BDE8F04100F03FB9000000002D000000F2
:100320002B0000002000000070B504460D46214659
:100330001068AFF300802188090502D50F4A7A447E
:1003400002E00E4A7A440E32002104F1240305E053
:1003500000F00F060009965D5E54491C0028F7D195
:1003600020780023000704D5702D02D009B10223A4
:1003700011322046BDE8704000F00DB9982600000B
:100380002DE9F05F894604464FF0000ADFF824B1FA
:10039000FB44C0F820A02046E168884700287DD0B3
:1003A000252806D0D4E901219047206A401C20620C
:1003B000F1E700255F462046E16888472028064689
:1003C00007DB312E05D2B81910F8200C08B105430F
:1003D000F1E7A80701D525F00405C4F81CA0002703
:1003E000C4F818A02A2E09D0304601F0BEFE38B35A
:1003F00004EB8708303EC8F8186019E059F8041B70
:10040000204604EB87029161E1688847012F064688
:1004100018D1E069002820DA25F020051DE0D8F881
:10042000180000EB800006EB40003038C8F81800D8
:100430002046E1688847064601F097FE0028EED185
:10044000012F0AD02E2E08D12046E16888477F1C54
:100450000646022F45F02005C4DBA069002803DA18
:10046000404245F00105A061E80701D025F01005E4
:10047000A6B1A6F14100192802D8203645F400653E
:100480004A463146204625604D46FFF769FE60B179
:10049000012807D0ED1D25F0070000E007E000F17E
:1004A000080978E705F1040975E730467AE7206A1C
:1004B000BDE8F09F6E260000032A40F2308010F065
:1004C000030C00F0158011F8013BBCF1020F6244EF
:1004D00098BF11F801CB00F8013B38BF11F8013B80
:1004E000A2F1040298BF00F801CB38BF00F8013B2D
:1004F00011F0030300F0E380083AC0F0088051F8DF
:10050000043B083A51F804CBA0E80810F5E7121DA7
:100510005CBF51F8043B40F8043BAFF30080D207C6
:1005200024BF11F8013B11F801CB48BF11F8012B92
:1005300024BF00F8013B00F801CB48BF00F8012BB5
:1005400070474FF0000200B5134694469646203996
:1005500022BFA0E80C50A0E80C50B1F12001BFF47C
:10056000F7AF090728BFA0E80C5048BF0CC05DF8E2
:1005700004EB890028BF40F8042B08BF704748BF30
:1005800020F8022B11F0804F18BF00F8012B7047A4
:100590007047704770472DE9F0470D4699469246DF
:1005A000044600F124080168880604D5E06921F0BA
:1005B0001001216000E00120A84201DD471B00E09E
:1005C0000027A1697A1902EB0900081AA0612078B6
:1005D000C00602D42046FFF71BFE002608E0D4E93F
:1005E00001211AF806009047206A401C761C206200
:1005F0004E45F4DB2078C0060AD52046FFF708FEFA
:1006000006E0D4E9012130209047206A401C206296
:10061000381EA7F10107F4DC07E0D4E9012118F83E
:1006200005009047206A401C2062281EA5F10105A4
:10063000F3DC2046FFF702FE2078000602D50220F8
:10064000BDE8F0870120FBE701694A1C02610878D8
:10065000704700B58FB0CDE9013100210591054902
:100660007944CDE9031011466846FFF789FE0FB0C3
:1006700000BD0000E5FFFFFF0A6802F8010B0A60F9
:100680007047D1E900239A4202D2531C0B601070CC
:10069000704710B5436913B1AFF3008001E0FFF775
:1006A000DEFD012010BD127800F124010A70002245
:1006B0004A700122EDE711684FF0FF32E9E710B50B
:1006C000203AC0F00B80B1E81850203AA0E818504A
:1006D000B1E81850A0E81850BFF4F5AF5FEA027C0B
:1006E00024BFB1E81850A0E8185044BF18C918C07A
:1006F000BDE810405FEA827C24BF51F8043B40F81B
:10070000043B08BF7047D20728BF31F8023B48BFFF
:1007100011F8012B28BF20F8023B48BF00F8012B3D
:100720007047754600F02CF8AE4605006946534602
:1007300020F00700854618B020B5FFF73DFDBDE865
:1007400020404FF000064FF000074FF000084FF038
:10075000000B21F00701AC46ACE8C009ACE8C009C9
:10076000ACE8C009ACE8C0098D46704710B5044636
:10077000AFF300802046BDE81040FFF709BD000040
:10078000004870479001002001491820ABBEFEE7E9
:10079000260002007047FEE70548016841F08071BD
:1007A00001600448016841F00101016070470000E8
:1007B000FCED00E0001000E07047000070B504465A
:1007C00000F00CF90546601C02D00448007804448F
:1007D00000F004F9401BA042FAD370BD0C000020C9
:1007E0002DE9F84FDFF8B891002409F1040A0AF165
:1007F000040B23460F270BF1040EC9E00125A54089
:100800002A40AA427DD1674ED1F804C0ACEB06085D
:10081000B44532D014DCBCF1030F3AD009DCBCF192
:10082000000F2AD0BCF1010F1CD0BCF1020F31D156
:100830001DE0BCF1110F17D0BCF1120F2AD119E045
:10084000B8F5881F19D006DCB8F5803F15D0B8F58B
:10085000801F1FD111E0B8F5001F0ED0B8F5041F9E
:1008600018D10AE0CB6815E0CB681B1D12E0CB68FD
:1008700008330FE0CB680C330CE08B682BB1012BF5
:100880004FF0080303D0456104E0042302E0056152
:1008900000E00023FF2A01D8064601E000F104062B
:1008A0004FEA840501D9A5F12005D6F8008007FAA2
:1008B00005FC28EA0C0803FA05F548EA0508C6F81D
:1008C00000804D68ED0062D5374DAE6946F00106F7
:1008D000AE61AD6924F0030605F001050095334DC6
:1008E00006EB050CDCF80850A607360F07FA06F8E9
:1008F00025EA0805DFF8B880404503D14FF000082D
:1009000017E044E0DFF8AC80404502D14FF0010829
:100910000FE0DFF8A480404502D14FF0020808E064
:10092000DFF89880404502D14FF0030801E04FF016
:10093000040808FA06F848EA0508CCF808804D686B
:10094000D9F80060ED034D4601D5164300E096430B
:100950002E604D68DAF80060AD03554601D51643A8
:1009600000E096432E604D68DBF80060ED025D46C6
:1009700001D5164300E096432E604D68DEF8006016
:10098000AD02754601D5164300E096432E60641C07
:100990000D682A46E5407FF431AFBDE8F88F0000CE
:1009A000000401400000111000100240000001404E
:1009B00000080140000C01400010014000140140FB
:1009C000C26821EA02030A4043EA0241016170471A
:1009D0000AB1016170470904FBE700000148806823
:1009E000704700000C000020024881680278114422
:1009F000816070470C000020074810B5016841F085
:100A000010010160032000F067F80F2000F006F8E5
:100A100000F024F8002010BD0020024070B50D4DFC
:100A200004464FF47A712878B1FBF0F00A4909685E
:100A3000B1FBF0F000F0C1FD48B9102C07D2002244
:100A40002146501E00F028F800206C6070BD012087
:100A500070BD00000C000020180000200C4808B5F4
:100A6000816941F001018161816901F00101009119
:100A7000C16941F08051C161C06900F080500090AF
:100A80000448416821F0E06141F00071416008BD17
:100A90000010024000000140F0B40E4B1B680C46F1
:100AA000C3F30223C3F10705042D00D90425191D42
:100AB000072901D2002300E0DB1E012606FA05F11A
:100AC000491E214099409E40761E16403143F0BC9D
:100AD00001F03BBB0CED00E0064900F0070208689E
:100AE0004FF6FF03184040EA0220034A1043086013
:100AF000704700000CED00E00000FA052DE9F0471A
:100B00000F46050061D0434E306800F00700B84240
:100B100009D2306820F0070038433060306800F0B8
:100B20000700B84251D128683B4C810712D54007D5
:100B300003D5606840F4E06060602878000703D562
:100B4000606840F4605060606068A96820F0F00060
:100B5000084360602878C00728D06868012810D052
:100B60002168022810D0890700292EDA616821F057
:100B7000030101436160FFF731FF804641F288398C
:100B80000DE021688903EFE78901EDE7FFF726FF14
:100B9000A0EB0801494502D90320BDE8F087606851
:100BA000696800F00C00B0EB810FEFD1306800F005
:100BB0000700B8420BD9306820F007003843306096
:100BC000306800F00700B84201D00120E5E728783E
:100BD000400705D56068E96820F4E060084360607C
:100BE0002878000706D56068296920F4605040EA3B
:100BF000C100606000F038F86168084AC1F3031171
:100C0000515CC8400649086006480068FFF706FFC7
:100C10000020C2E70020024000100240C229000864
:100C200018000020100000200448054900684968A9
:100C3000044AC1F30221515CC840704718000020EB
:100C400000100240D229000804480549006849689C
:100C5000044AC1F3C221515CC8407047180000200B
:100C600000100240D229000812A185B00FC98DE8FA
:100C70000F0014A0144A006804905168134801F052
:100C80000C03042B10D0082B0ED1C1F38343C903EE
:100C90001DF803000AD5516804AAC1F34041515C14
:100CA0000A4A5043B0FBF1F005B070470849484389
:100CB000FAE7000002030405060708090A0B0C0DF9
:100CC0000E0F1010010200000010024000127A0006
:100CD00000093D002DE9F84F040070D02078C04D88
:100CE000C00749D06868C0F38100012807D0686850
:100CF000C0F38100022809D16868C00306D52868BE
:100D0000800339D560680028E7D035E06068B0F529
:100D1000803F0BD010B1B0F5A02F11D0286820F47F
:100D200080302860286820F4802002E0286840F4A1
:100D300080302860606890B1FFF750FE06460AE0F8
:100D4000286840F480202860F0E700BFFFF746FEE7
:100D5000801B642873D828688003F7D50CE0FFF760
:100D60003DFE064605E000BFFFF738FE801B642805
:100D7000F0D828688003F7D420789A4E80074FF087
:100D800001094FF0000839D5686810F00C0F07D042
:100D90006868C0F38100022809D16868C00306D4DE
:100DA0002868800714D52069012808D110E020693F
:100DB000B0B1C6F80090FFF711FE074605E00AE162
:100DC000FFF70CFEC01B0228C4D828688007F7D59F
:100DD0002868616920F0F80040EAC10028600DE051
:100DE000C6F80080FFF7FAFD074604E0FFF7F6FDBE
:100DF000C01B022823D828688007F7D42078000772
:100E00002CD57948A169D9B1C0F80090FFF7E6FD6B
:100E1000074604E0FFF7E2FDC01B02280FD8686A0E
:100E20008007F7D571484FF4FA510068B0FBF1F034
:100E3000009000BF0098411E0091FAD20EE080E0C1
:100E4000C0F80080FFF7CAFD074604E0FFF7C6FDC3
:100E5000C01B022875D8686A8007F7D4207840073D
:100E600060D5E8690027C00008D4E86940F08050E8
:100E7000E861E869012700F0805000905C48016853
:100E8000C90513D40168834641F480710160FFF7FE
:100E9000A5FD824606E000BFFFF7A0FDA0EB0A001B
:100EA00064284ED8DBF80000C005F5D5E0680128BD
:100EB0000AD008B1052813D0286A20F00100286262
:100EC000286A20F0040002E0286A40F0010028624D
:100ED000E06841F2883B98B1FFF780FD82460BE065
:100EE000286A40F004002862EEE700BFFFF776FDB5
:100EF000A0EB0A0159455AD8286A8007F6D50CE0BC
:100F0000FFF76CFD824605E0FFF768FDA0EB0A01E4
:100F100059454CD8286A8007F6D41FB1E86920F0FB
:100F20008050E861E06988B36968C1F381010229F2
:100F300044D00228C6F8608004D0FFF74FFD044675
:100F400038E034E0FFF74AFD074604E0FFF746FDCE
:100F5000C01B02282BD828688001F7D4206AB0F57E
:100F6000803F05D16868A16820F4003008436860BC
:100F7000D4E908010843696821F4741108436860E2
:100F8000C6F86090FFF72AFD044606E025E000BFA2
:100F9000FFF724FD001B022809D828688001F7D537
:100FA0001BE000BFFFF71AFD001B022802D9032037
:100FB000BDE8F88F28688001F4D40EE00128F7D04E
:100FC0006868226A00F48031914204D1616A00F4B9
:100FD0007010884201D00120EAE70020E8E7000015
:100FE00000100240000042428004424218000020EB
:100FF0000070004070B5040009D0606A002540B15F
:1010000025616561A56294F8510040B10CE00120B2
:1010100070BD6068B0F5827FF4D0E561F2E784F8D6
:101020005050204600F040F8022084F8510020681B
:10103000016821F040010160A088218900F48270DC
:1010400001F404410843A18901F400610843217CB3
:1010500001F002010843217D01F001010843218BC9
:1010600001F400710843217F01F03801084394F82E
:10107000201001F080010843218D01F40051084344
:1010800021680860A069042101EA104021684860D5
:101090002068C16921F40061C1616565012084F89F
:1010A0005100002070BD000030B585B000240094D0
:1010B00001940294039400681449884223D114488F
:1010C000816941F480518161816901F48051049109
:1010D000816941F00401816180690E4D00F00400D6
:1010E0000490A02000900220019003200390694604
:1010F0002846FFF775FB4020CDE9000469462846E5
:101100000294FFF76DFB05B030BD000000300140D8
:1011100000100240000801402DE9F84F04464068E5
:101120000025984616460F464FF0040BB0F5827F17
:1011300001D1A06888B194F85000012818D001208E
:1011400084F85000FFF74AFC814694F851004FF0B4
:10115000000A01280ED0022582E084F851B013461F
:101160000A462046CDF8008000F036F9BDE8F88F39
:101170000220FBE7002F72D0002E70D084F851B00F
:10118000C4F854A0A763A687E687C4F830A0A4F8E3
:1011900034A0A4F836A0C4F840A0C4F844A0A068C5
:1011A000B0F5004F09D12068016821F040010160CD
:1011B0002068016821F480410160206801684906C7
:1011C00003D4016841F040010160E068D8B139E022
:1011D00020688168C90709D0007BA16B0870A06BEB
:1011E000401CA063E08F401EE0870CE0FFF7F6FB99
:1011F000A0EB0901414503D3B8F1FF3F03D036E02E
:10120000B8F1000F33D0E08F0028E1D11DE0206855
:101210008168C90709D0C068A16B0880A06B801CD9
:10122000A063E08F401EE0870CE0FFF7D7FBA0EB48
:101230000901414503D3B8F1FF3F03D017E0B8F1EE
:10124000000F14D0E08F0028E1D14A4641462046E5
:1012500000F06FFD08B120206065606D00B10125D0
:10126000012084F8510084F850A028467EE7032529
:10127000F6E72DE9F84F044690F8500000271D4688
:101280001646894601280DD04FF0010B84F850B066
:10129000FFF7A4FB804694F85100BA46012804D019
:1012A000022793E00220BDE8F88FB9F1000F73D058
:1012B000002E71D0032084F85100C4F854A0C4F863
:1012C0003090A686E686C4F838A0A4F83CA0A4F81E
:1012D0003EA0C4F844A0C4F840A0A068B0F5004FF8
:1012E00009D12068016821F040010160206801688F
:1012F00041F48041016020680168490603D4016817
:1013000041F040010160E068B0F5006F606803D013
:1013100030B3012E24D041E008B1012E1CD1206B46
:1013200021680088C86006E020688168890709D5BF
:10133000216B0988C160206B801C2063E08E401EF9
:10134000E08609E0FFF74AFBA0EB0800A84202D3C1
:10135000681C01D031E07DB3E08E0028E4D120E0AC
:10136000206B21680078087306E02068816889078F
:1013700009D5216B09780173206B401C2063E08E36
:10138000401EE0860AE0FFF729FBA0EB0800A84218
:1013900003D3681C02D010E017E06DB1E08E002886
:1013A000E3D142462946204600F0F1FC08B1202056
:1013B0006065A06818B106E0FFE7032706E0206833
:1013C000C16880680090606D00B1012784F851B059
:1013D00084F850A0384666E72DE9F84F044690F8A7
:1013E000500000270A9E1D4692468B464FF0010989
:1013F00001280ED0012084F85000FFF7EFFA804654
:1014000094F85100616801280CD0B1F5827F07D1B2
:1014100002E00220BDE8F88FA16809B9042801D0D4
:101420000227C2E0BBF1000F27D0BAF1000F24D091
:101430001DB394F85100042802D0052084F851000F
:1014400000206065C4F838A0E587A587C4F830B0EF
:10145000E586A5862064606420680168490603D497
:10146000016841F040010160E068B0F5006F60681C
:1014700005D0E8B3012D46D07FE0012795E008B103
:10148000012D39D1206B21680088C860206B801C39
:101490002063E08E401EE0862EE020688168890788
:1014A0000FD5E18E69B1B9F1010F0AD1216B09881D
:1014B000C160206B801C2063E08E401EE0864FF0F0
:1014C000000920688168C9070CD0E18F51B1C0685C
:1014D000A16B0880A06B801CA063E08F401EE0879A
:1014E0004FF00109FFF77AFAA0EB0800B04200E0E4
:1014F00009E001D3701C50D1E08E0028CDD1E08FDF
:101500000028CAD13FE0206B216800780873206B67
:10151000401C2063E08E401EE0862EE0206881683B
:1015200089070FD5E18E69B1B9F1010F0AD1216B9D
:1015300009780173206B401C2063E08E401EE0861A
:101540004FF0000920688168C9070CD0E18F51B1C4
:10155000C068A16B0870A06B401CA063E08F401EA8
:10156000E0874FF00109FFF739FAA0EB0800B0421D
:1015700002D3701C01D010E07EB1E08E0028CDD1E6
:10158000E08F0028CAD142463146204600F0FFFBDA
:1015900028B101272020606507E0032705E0A06847
:1015A00018B92068C16880680090012084F8510053
:1015B000002084F8500038462CE710B5401EB0F1EA
:1015C000807F01D3012010BD4FF0E02460610F2126
:1015D000601700F0BAFD0020A06107202061002004
:1015E00010BD10B590F83C20012A22D0012280F8CD
:1015F0003C20CA688C6822F4407222434C6822F472
:10160000806222430C6822F4006222430C6922F4B7
:10161000805222434C6922F400522243C9690023BC
:1016200022F480420A4301684A6480F83C3000207A
:1016300010BD022010BD000070B590F83C20012ABA
:1016400026D0012480F83C40022280F83D20036827
:101650005A689D6822F070060A6832435A600D4B42
:1016600002689A4208D0B2F1804F05D00A4B9A42E4
:1016700002D00A4B9A4204D1496825F080031943ED
:10168000916080F83D40002180F83C10084670BD14
:10169000022070BD002C0140000400400008004002
:1016A00010B586B000210091019102910391284C60
:1016B0000368284A02212848A34210D1936943F0C5
:1016C000040393619269039102F00402049282156B
:1016D000CDE900216946FFF783F806B010BD1F4C25
:1016E000B3F1804F1BD01E488342F6D1906940F081
:1016F000080090619069039100F0080004901020A8
:10170000CDE9000169461748FFF76AF8606820F4E0
:10171000406040F0E06040F400606060DDE79369A5
:1017200043F0040393619269039102F0040204926E
:101730004FF40042CDE900216946FFF751F8606897
:1017400020F4407040F0E06040F48070E5E7000075
:10175000002C014000100240000801400000014040
:1017600000040040000C014070B5044690F83C00B5
:101770000D4601280AD0012084F83C0042B1042A19
:1017800018D0082A2AD00C2A4DD139E0022070BD89
:10179000206800F0DBFB2068816941F0080181616D
:1017A0002068816921F004018161206881692A69CA
:1017B000114311E0206800F0F1FB2068816941F4D9
:1017C000006181612068816921F480618161206804
:1017D00081692A6941EA0221816124E0206800F0E0
:1017E00009FC2068C16941F00801C1612068C16934
:1017F00021F00401C1612068C1692A69114311E027
:10180000206800F023FC2068C16941F40061C161D7
:101810002068C16921F48061C1612068C1692A69B9
:1018200041EA0221C161002084F83C0070BD10B57E
:10183000040003D094F83D0010B107E0012010BD72
:10184000002084F83C00204600F01EF8022084F8B6
:101850003D00211D206800F035FB012084F8460082
:1018600084F83E0084F83F0084F8400084F841008A
:1018700084F8420084F8430084F8440084F845006A
:1018800084F83D00002010BD08B5124A01681248D6
:10189000914207D1816941F400618161806900F45E
:1018A000006014E0B1F1804F0AD00C4A91420FD190
:1018B000C16941F00201C161C06900F0020006E0A7
:1018C000C16941F00101C161C06900F001000090EF
:1018D00008BD0000002C0140001002400004004040
:1018E00010B50446022249B104290ED0082913D0AC
:1018F00094F84100012816D0012010BD94F83E0054
:101900000128F9D184F83E200FE094F83F00012827
:10191000F2D184F83F2008E094F840000128EBD190
:1019200084F8402001E084F841200122206800F082
:10193000FFFA0F492068884203D1426C42F400420A
:1019400042642068884208D0B0F1804F05D0094930
:10195000884202D00849884204D1816801F0070119
:10196000062903D0016841F001010160002010BD8B
:10197000002C0140000400400008004070B5040045
:1019800004D094F83D00002510B106E0012070BDA0
:1019900084F83C50204600F023F8242084F83D00D1
:1019A0002068C16821F40051C160204600F070FB3E
:1019B0002068016921F4904101612068416921F0AA
:1019C0002A0141612068C16841F40051C160256469
:1019D000202084F83D0084F83E00002070BD000007
:1019E00030B585B0002400940194029403940068FB
:1019F0001449884224D11448816941F480418161AD
:101A0000816901F480410491816941F0040181619F
:101A100080690E4D00F0040004904FF400700090B7
:101A2000022001900320039069462846FEF7D8FE65
:101A30002815CDE90004694628460294FEF7D0FE39
:101A400005B030BD003801400010024000080140E0
:101A5000FEE700002DE9F04385B0002425480094FE
:101A6000019402940394816941F0200181618169AC
:101A700001F020010491816941F0040181618169D3
:101A800001F004010491816941F0080181618069DC
:101A9000DFF8648000F0080004900022182140461E
:101AA000FEF796FFDFF854904FF4006700223946A6
:101AB0004846FEF78DFF042000901148CDE901044F
:101AC00069464046FEF78CFE182001250226CDE926
:101AD0000005CDE9024669464046FEF781FE0097C3
:101AE0000396CDE9015469464846FEF779FE05B0F4
:101AF000BDE8F0830010024000080140000C0140E6
:101B0000000011100B480A494FF4007201604FF4B5
:101B10008271416000218160C1600161C0E90512EC
:101B2000C1610162416281620A21C162FFF762BA4A
:101B3000003001401C00002010B592B000240F942A
:101B40001C2108A81094FEF7FCFC20216846FEF733
:101B5000F8FC1A4818490160B321C0E9011440F2A9
:101B6000E731C0E9031444618461FFF760FE0F941C
:101B70000FA912481094FFF75FFD6020CDE908041B
:101B80000A940B940C940D94002208A90B480E940F
:101B9000FFF7EAFD00944FF40050CDE904400294B1
:101BA00001940394694605480794FFF71AFD03481A
:101BB000FFF776FD12B010BD002C0140740000202C
:101BC00010B58AB0002407941C2168460894FEF7DB
:101BD000B8FC11484FF0804101604721C0E9011471
:101BE00044F61F61C0E903148461FFF720FE0794E7
:101BF00007A909480894FFF71FFD6020CDE90004FC
:101C000002940022694604480494FFF7ADFD02489F
:101C1000FFF746FD0AB010BDBC00002010B58AB029
:101C2000002407941C2168460894FEF78AFC124899
:101C3000104901604721C0E9011444F61F61C0E961
:101C400003148461FFF7F3FD079407A90A48089479
:101C5000FFF7F2FC6020CDE90004029400226946FF
:101C600005480494FFF780FD0348FFF719FD0AB00B
:101C700010BD00000004004004010020FEE7FEE764
:101C800070B52A4C00252020E570207025710520B4
:101C90006070601D0570284600F082FA012000F097
:101CA00099FA0520FEF78AFD0C21002000F034FE91
:101CB0000F21052000F0A3FD032000F08BFD022082
:101CC00000F062FD08B10120E070062000F036FD52
:101CD0000646002000F058FD00F0DEFD00211D202A
:101CE00000F01AFE00211C2000F016FE2571702164
:101CF000072000F011FE4C2000F042FDE22000F031
:101D000085FDE12000F082FD00F0C4FC002000F021
:101D100015FD20F00101002000F0FEFD1EB1FF2E98
:101D200001D0012070BD002070BD00000000002027
:101D30007047F8B5044640684FF48273984217D153
:101D4000A0684FF48065B0F5004F01D0A8420FD1D4
:101D50002068066826F0400606606068984207D151
:101D6000A068A84204D100920B460022012103E0A2
:101D700000920B4600228021204600F019F800282E
:101D800004D0606D40F0200060650320F8BD38B5D8
:101D90000B46009204460022802100F009F800283A
:101DA00004D0606D40F020006065032038BD000065
:101DB0002DE9F8431E46914688460446089DFEF7E5
:101DC0000DFE401B351AFEF709FE07462548006840
:101DD000C0F3CB30684338E0701C37D0FEF7FEFD0F
:101DE000C01BA84203D215B1009860B32CE0206854
:101DF000416821F0E00141606068B0F5827F0BD15D
:101E0000A068B0F5004F02D0B0F5806F04D1206813
:101E1000016821F040010160A06AB0F5005F09D1BE
:101E20002068016821F4005101602068016841F4D4
:101E300000510160012084F85100002084F8500016
:101E40000320BDE8F8830025401E009020688168CB
:101E500038EA010004D000214945BDD10020F0E757
:101E60000121F9E7180000207047FEF7BDBD30B52D
:101E70008FB028216846FEF764FB14210AA8FEF7FC
:101E800060FB01210804CDE9001000240294022522
:101E90000491CDE907504FF4E01009906846FEF731
:101EA00019FF0F20CDE90A056802CDE90C404FF477
:101EB000E0600E9002210AA8FEF720FE0FB030BDB0
:101EC00070470000F0B50268164B174C174D4FF0E5
:101ED0008047984205D0B84203D0A04201D0A84222
:101EE00003D122F070064A683243984205D0B842C6
:101EF00003D0A04201D0A84203D122F44074CA68A2
:101F000022434C6922F08002224302608A68C26246
:101F10000A688262984201D1096901630121416125
:101F2000F0BD0000002C014000040040000800400B
:101F300010B501F01F030121046A99408C4304622B
:101F4000016A9A401143016210BD000030B5026A77
:101F500022F001020262026A4368846924F0730578
:101F60000C682C4322F002058A682A430A4DA842D5
:101F70000BD122F00805CA6823F440732A434D6947
:101F800022F004021D438B692B434360846149683E
:101F90004163026230BD0000002C014030B5026A8E
:101FA00022F010020262026A436884690D6824F418
:101FB000E64444EA05248D6822F0200242EA051234
:101FC0000B4DA8420ED1CD6822F0800242EA0512E4
:101FD0004D6923F4406343EA85038D6922F0400292
:101FE00043EA85034360846149688163026230BDCE
:101FF000002C014030B5026A22F480720262036A4A
:102000004268C46923F4007324F073050C682C4300
:102010008D6843EA05230C4DA8420ED1CD6823F408
:10202000006343EA05234D6922F4405242EA051257
:102030008D6923F4806342EA05124260C4614968F5
:10204000C163036230BD0000002C014030B5026A5C
:1020500022F480520262046A4268C3690D6823F464
:10206000E64343EA05238D6824F4005444EA05342A
:10207000064DA84204D14D6922F4804242EA8512FD
:102080004260C36149680164046230BD002C0140B4
:1020900070B5044600680169E26821F440511143BB
:1020A00001612169A0680843616908432168CA6821
:1020B00041F20C639A430243CA6020684169A269F5
:1020C00021F44071114341611E492068884202D1C8
:1020D000FEF7BAFD01E0FEF7A7FD00EBC00101EB42
:1020E0000012606864218000B2FBF0F3B3FBF1F3EF
:1020F0006FF018067343B2FBF0F5B2FBF0F605EB98
:102100008305322303EB0515B5FBF1F5B6FBF1F6BC
:1021100005F0F00505EB0615B2FBF0F6B2FBF0F0AA
:10212000B0FBF1F06FF01802504306EB800003EBB8
:102130000010B0FBF1F0216800F00F002844886027
:1021400070BD000000380140FEE70907090E0028B5
:1021500004DB00F1E02080F80014704700F00F006D
:1021600000F1E02080F8141D704730380A2801D2B1
:10217000012070470020704710B50446172000F07A
:10218000DDFAC00701D0002010BD24B100F0BCF87A
:10219000C0F342002070012010BD0020FFF7ECBF0B
:1021A000024608210148FEF713BC00000008014068
:1021B00010B50446022000F0C1FA05490A5D01216C
:1021C000914020EA0101BDE81040022000F0A4BBCC
:1021D000B029000810B5024610210448FEF7F8FBAC
:1021E000BDE81040052000F003B8000000080140E1
:1021F0000649074A0968B1FBF2F14143054800224C
:10220000426042688A42FCD37047000018000020F8
:1022100040420F00001000E010B51D2000F08EFAC3
:1022200040F006011D2000F077FB1C2000F086FA2C
:1022300040F003011C2000F06FFB024901200871EF
:1022400010BD00000000002070B50024204600F002
:1022500075FA00F00C05012000F070FA05F0080195
:10226000014304D0680701D5022400E00124204680
:1022700070BD052000F062BA10B5062000F05EFACD
:1022800000F02800202803D0082803D0002010BD2B
:10229000022010BD012010BD3EB500208DF80400C5
:1022A000FFF798FF60208DF808004FF47A7401233F
:1022B00001AA02A90C480094FFF78EF8012301AA95
:1022C000FF2109480094FFF787F80120FFF782FFFC
:1022D0009DF80400202806D9E22000F097FA022099
:1022E000FEF76CFA00203EBD1C00002010B5062051
:1022F00000F024FAC0F3410010BD0000014800784E
:102300007047000000000020FF2000F07FBA10B5E9
:10231000032000F013FA401E022801D8012010BD4E
:10232000002010BD9CB0FEF767FBFFF7A0FDFFF794
:1023300091FBFFF7E7FBFFF7FFFBFFF741FCFFF720
:102340006DFC78487649002401604FF4E131C0E922
:1023500001140C21C460C0E904418461C461FFF729
:102360000DFB70480021D838FFF7BAFA6D480021FC
:102370009038FFF7B5FA6B4800214838FFF7B0FAFC
:10238000684D6420D83D296848634FF4FA60FEF731
:1023900015FA2968322048634FF47A70FEF70EFA76
:1023A00028684463FEF7F8F9FFF7B1FF40210AA857
:1023B000FEF7C7F85CA35DA240210AA8FDF70EFF57
:1023C000FFF75EFC401EFE2801D257A300E05BA38E
:1023D0005CA240210AA8FDF701FFFFF71DFF1320B3
:1023E00000F0CEF95A4AE823012000F023F900F06A
:1023F00025FAFFF789FF034656A240210AA8FDF7F8
:10240000EDFEFFF773FF034657A240210AA8FDF730
:10241000E5FEFFF72EFF0346009059A240210AA8CF
:10242000FDF7DCFEFFF728FF03465CA240210AA867
:10243000FDF7D4FEFFF762FF03465EA240210AA823
:10244000FDF7CCFEFFF700FF03465FA240210AA87C
:10245000FDF7C4FE01221146104600F0D7F82021F6
:1024600002A8FEF76EF88DF868401AA8FFF784FE00
:102470000028F4D05A4901220878401C08709DF8C1
:10248000680000F025FA9DF868000028E7D00128D0
:1024900002D00228E3D03EE0FFF7FEFE014602A88C
:1024A00000F009F929689DF80B0048639DF80C00BD
:1024B0001C4900EB800040009039096848639DF892
:1024C0000D00184900EB8000400048390968486356
:1024D0009DF808004D28C2D19DF809005628BED1AC
:1024E0009DF80A006128BAD14FF400613D48FEF71B
:1024F00067FA9DF80A109DF80900CDE900019DF8E2
:10250000083039A240210AA8FDF768FEA7E720217C
:1025100002A800F0D0F8FFF740FE00289FD0F6E7B1
:10252000003801404C0100204F4B0000436F6E6E9D
:1025300065637465643A2025730A00004E4F542089
:102540004F4B0000496E69743A2025730A00000061
:10255000E2F0F0E86765745F7374617475733A2034
:102560003078253032780A0067657450414C6576C2
:10257000656C3A2030782530327820200000000049
:102580006765744368616E6E656C3A2030782530FB
:102590003278203F2025640A0000000067657444FB
:1025A000617461526174653A203078253032782048
:1025B000200000006765745061796C6F6164536935
:1025C0007A653A2025640A006765744352434C6576
:1025D0006E6774683A203078253032782020000009
:1025E0000A000020000C0140646174615B305D3DB5
:1025F000256420646174615B315D3D256420646104
:1026000074615B325D3D25640A00000070B50646CA
:1026100014460D46002000F091F8290141EA4611C8
:1026200041EA8411BDE8704020F0700001430020B1
:1026300000F072B97FB5154E154D040006D0062C7A
:1026400023D8022C09D2305D6A7808E010486A78F5
:1026500002A9401DFDF730FFF5E7305D012202A918
:1026600000F080F909482978801D005D00F054F9D8
:10267000022000F063F80549891F0A5D012191409D
:102680000843C1B2022000F047F97FBDB629000817
:102690000000002010B5002000F050F8810709D498
:1026A00040F00201002000F037F9BDE8104005209D
:1026B000FEF784B810BD10B500F006F87021BDE833
:1026C0001040072000F028B92DE9FC410C461949BB
:1026D000064600270878844200D90446097909B1E2
:1026E000002000E0001BC5B261208DF80000002032
:1026F000FFF770FD6423012269460F48FEF7B9FD1C
:102700006423224631460C48FEF706FD002407E00C
:102710008DF804406423012201A90748FEF7FCFC60
:102720006D1EEDB2F4D20120FFF754FD3846BDE82E
:10273000FC810000000000201C0000203EB500F0DD
:102740001F008DF8080000208DF80400FFF742FDFF
:102750004FF47A74012301AA02A908480094FEF7F5
:102760003BFE012301AAFF2104480094FEF734FE3A
:102770000120FFF72FFD9DF804003EBD1C00002046
:102780000146052000F0C8B870B5064600250620B1
:10279000FFF7D4FF20F028040D485521022E817048
:1027A00002D0012E04D007E044F020049B2102E077
:1027B00044F00804412181702146062000F0ACF865
:1027C0000620FFF7BBFFA04200D10125284670BDBF
:1027D0000000002010B504460620FFF7AFFF00F010
:1027E000F801032C01D9072003E0012000EB44008D
:1027F000C0B20143BDE81040062000F08DB800F0E3
:102800000F0060F31F11042000F086B801B582B0FC
:1028100000208DF80400FFF7DDFC4FF47A70009083
:10282000012301AA02A90448FEF7D6FD0120FFF703
:10283000D1FC9DF804000EBD1C00002010B5FFF770
:1028400029FF0020FFF77AFF40F00101002000F08F
:1028500063F87021072000F05FF80120FFF7A0FC6B
:102860000C48007838B10B48401F411D42780A20BF
:1028700000F078F802E00020FFF79AFC1D20FFF737
:102880005DFF800704D5BDE81040E120FFF7BEBF23
:1028900010BD00000500002038B550208DF8000064
:1028A0000020FFF797FC4FF47A7423460122694613
:1028B0000648FEF7DEFC2346012273210348FEF79B
:1028C000D8FC0120FFF786FC38BD00001C0000206A
:1028D000F8B50C46202A00D3202200F0070040F073
:1028E000A8008DF8000015460020FFF773FC4FF498
:1028F0007A763346012269460648FEF7BAFC33462B
:102900002A4621460348FEF7B4FC0120FFF762FC8B
:10291000F8BD00001C00002003B583B000F01F00CC
:10292000002140F020008DF808008DF804100846C2
:10293000FFF750FC64200090012301AA02A9084877
:10294000FEF74AFD4FF47A73012204A90448FEF70A
:1029500090FC0120FFF73EFC9DF8040005B000BD8F
:102960001C0000203EB50D4600F01F00002140F085
:1029700020008DF8080014468DF804100846FFF773
:1029800029FC64200090012301AA02A90748FEF750
:1029900023FD6423224629460448FEF76AFC0120F1
:1029A000FFF718FC9DF804003EBD00001C0000204D
:1029B0000001020304050A0B0C0D0E0F1112131473
:1029C00015160000000000000000010203040607C5
:1029D00008090000000001020304303132333435AD
:1029E000363738394142434445464030580030314B
:1029F0003233343536373839616263646566403066
:102A0000780004000008000000000000000200013F
:102A100000001000342A0008000000201C00000004
:102A200028010008502A00081C000020D4070000DC
:102A30004401000800000000000000000000000049
:102A40000100000010000000000000000024F4005D
:04000005080000ED02
:00000001FF
